:020000040800F2
:10000000E008002031020008E50E0008DD0D0008C0
:100010006D0E0008190500081325000800000000F7
:10002000000000000000000000000000C91D0008E2
:10003000550B000800000000DD1A000871200008C0
:100040004B0200084B0200084B0200084B0200085C
:100050004B0200084B0200084B0200084B0200084C
:100060004B0200084B0200084B0200084B0200083C
:100070004B0200084B0200084B0200084B0200082C
:100080004B0200084B0200084B0200084B0200081C
:100090001D0500084B0200084B0200084B02000837
:1000A0004B0200084B0200084B0200084B020008FC
:1000B0004B020008DD2000084B0200084B0200083C
:1000C0004B0200084B0200084B0200084B020008DC
:1000D0004B020008F52200084B0200084B02000802
:1000E0004B0200084B0200084B0200084B020008BC
:1000F0004B0200084B0200084B0200084B020008AC
:100100004B0200084B0200084B0200084B0200089B
:100110004B0200084B0200084B0200084B0200088B
:100120004B0200084B0200084B0200084B0200087B
:100130004B0200084B0200084B0200084B0200086B
:100140004B0200084B0200084B0200084B0200085B
:100150004B0200084B0200084B0200084B0200084B
:100160004B0200084B0200084B0200084B0200083B
:100170004B0200084B0200084B0200084B0200082B
:100180004B0200084B02000800F002F800F041F8B2
:100190000AA090E8000C82448344AAF10107DA45E2
:1001A00001D100F036F8AFF2090EBAE80F0013F0F3
:1001B000010F18BFFB1A43F0010318470425000084
:1001C00024250000103A24BF78C878C1FAD8520715
:1001D00024BF30C830C144BF04680C6070470000C1
:1001E0000023002400250026103A28BF78C1FBD840
:1001F000520728BF30C148BF0B607047782900F014
:100200004580002070471FB502F040FA1FBD10B5B1
:1002100010BD00F04FF91146FFF7F5FF02F0AAF903
:1002200000F06DF903B4FFF7F2FF03BC02F073F9BD
:100230000948804709480047FEE7FEE7FEE7FEE77A
:10024000FEE7FEE7FEE7FEE7FEE7FEE704480549B6
:10025000054A064B70470000752000088901000818
:10026000E0020020E0080020E0040020E00400207C
:10027000704700000FB4044910B503AA029800F0BB
:10028000EBF810BC5DF814FB2000002070B50446AC
:100290000D4621461068AFF300802188090502D57C
:1002A0000F4A7A4402E00E4A7A440E32002104F1E9
:1002B000240305E000F00F060009965D5E54491C1A
:1002C0000028F7D120780023000704D5702D02D034
:1002D00009B1022311322046BDE8704000F062B837
:1002E000F02300002DE9F0410F460546002028626A
:1002F0002846E968884770B3252805D0D5E901214B
:100300009047286A401CF2E7E9682846002688479B
:100310006C2804460AD0682C08D04C2C35D06A2CA6
:1003200031D0742C31D07A2C2FD016E0E9680646F3
:1003300028468847B042044608D16C2E23D04FF49B
:1003400080662846E9688847044606E06C2E03D09C
:100350004FF4807601E01EE04026E4B1A4F14100B4
:10036000192802D8203446F400663A462146284629
:100370002E60FFF743FF60B1012808D0FF1D27F072
:1003800007070837B4E78026DBE70026D9E73F1DDB
:10039000AEE72046B2E7286ABDE8F08170477047B3
:1003A000704770472DE9F0470D469946924604463E
:1003B00000F124080168880604D5E06921F01001E5
:1003C000216000E00120A84201DD471B00E000277A
:1003D000A1697A1902EB0900081AA0612078C00609
:1003E00002D42046AFF30080002608E0D4E90121C2
:1003F0001AF806009047206A401C761C20624E4581
:10040000F4DB2078C0060AD52046AFF3008006E072
:10041000D4E9012130209047206A401C2062381E18
:10042000A7F10107F4DC07E0D4E9012118F8050081
:100430009047206A401C2062281EA5F10105F3DCCC
:100440002046AFF300802078000602D50220BDE8E8
:10045000F0870120FBE70000074B70B50D467B4499
:1004600000F011F80446284600F020F810B14FF0D3
:10047000FF3070BD204670BDF720000001694A1CA6
:1004800002610878704700B58FB0CDE901310021D5
:10049000059105497944CDE9031011466846FFF7F7
:1004A00021FF0FB000BD0000E5FFFFFF007B00F063
:1004B00080007047754600F02BF8AE46050069468F
:1004C000534620F00700854618B020B5FFF7BEFE62
:1004D000BDE820404FF000064FF000074FF0000845
:1004E0004FF0000B21F00701AC46ACE8C009ACE8C6
:1004F000C009ACE8C009ACE8C0098D46704710B52A
:100500000446AFF300802046BDE81040FFF78ABEE6
:10051000004870477C02002000BFFEE710B588B09D
:10052000002416480068401C1449086003AA0021F2
:10053000134800F040F99DF818008DF805009DF86B
:1005400017008DF8040004980090022407E00DF1D4
:100550001700025DA01E0DF106010A54641C082C50
:10056000F5DB684601F060FB0448007800F001020A
:100570000821044800F0A3FB08B010BD28000020AB
:10058000006400400010024010B50021837A01226F
:1005900002FA03F13D4A126842F001023B4B1A6035
:1005A0003A4A1C3212688A43384B1C331A60027B69
:1005B000CAB9364A0C3212688A43344B0C331A607B
:1005C0004288C38842EA0343304A4032847A42F880
:1005D00034300288838842EA03432C4A4032847ACA
:1005E00002EBC4025360027B012A19D1274A0C3264
:1005F00012680A43254B0C331A604288038842EA8A
:100600000343224A4032847A42F83430C2888388D5
:1006100042EA03431D4A4032847A02EBC40253602B
:10062000C27A3AB9194A121D12688A43174B1B1D28
:100630001A6006E0154A121D12680A43134B1B1D6F
:100640001A60028932B9114A143212688A430F4B78
:1006500014331A600289012A06D10C4A1432126836
:100660000A430A4B14331A60427B012A06D1074A17
:100670001C3212680A43054B1C331A60034A126885
:1006800022F00102014B1A6010BD0000006600401C
:100690001AB143690B43436102E043698B434361F1
:1006A000704730B5024600200023146824F002048D
:1006B0001460146844F00104146000E05B1C54688A
:1006C00004F001041CB94FF6FF74A342F6D154683C
:1006D00004F001040CB900206CE08C79012C04D1E9
:1006E000146844F08004146003E0146824F080046B
:1006F0001460CC79012C04D1146844F040041460D7
:1007000003E0146824F0400414600C7A012C04D136
:10071000146844F02004146003E0146824F02004FA
:1007200014604C7A012C04D1146844F01004146055
:1007300003E0146824F0100414608C7A012C04D1B6
:10074000146844F00804146003E0146824F00804FA
:100750001460CC7A012C04D1146844F004041460B1
:1007600003E0146824F0040414608C78A407CD78A6
:1007700044EA05640D7944EA05444D7944EA055498
:100780000D886D1E2C43D461146824F0010414609C
:10079000002300E05B1C546804F001041CB14FF618
:1007A000FF74A342F6D1546804F001040CB1002098
:1007B00000E0012030BD10B500F5D87303EB011344
:1007C0001B6803F004031372137A53B900F5D8734E
:1007D00003EB01131B6840F2FF7404EA53531360E8
:1007E00009E000F5D87303EB01131B686FF0604458
:1007F00004EAD303536000F5D87303EB01131B68BD
:1008000003F00203537200F5D87303EB01135B6826
:1008100003F00F03937200F5D87303EB01135B68C9
:100820001B0AD37400F5D87303EB01139B68D372D2
:1008300000F5D87303EB01139B681C0A147300F5D1
:10084000D87303EB01139B681C0C547300F5D87329
:1008500003EB01139B681B0E937300F5D87303EB36
:100860000113DB68D37300F5D87303EB0113DB6866
:100870001C0A147400F5D87303EB0113DB681C0C1D
:10088000547400F5D87303EB0113DB681B0E9374EB
:1008900021B9C36843F02003C36003E0036943F058
:1008A0002003036110BD10B502460020936803F0D9
:1008B0008063B3F1806F00D110E0936803F00063B0
:1008C000B3F1006F01D1012008E0936803F0805379
:1008D000B3F1805F01D1022000E00420042874D02D
:1008E00002F5C07303EB00131B6803F0010402F56B
:1008F000C07303EB00131C600B7A7BB94B7A0C8836
:1009000043EA445302F5C07404EB00142468234303
:1009100002F5C07404EB0014236010E00B7A4C68FD
:1009200043EAC4034C7A234302F5C07404EB001479
:100930002468234302F5C07404EB001423608B7A0F
:1009400003F00F038B7202F5C07303EB00135B68B7
:1009500023F00F0402F5C07303EB00135C6002F593
:10096000C07303EB00135B688C7A234302F5C074F9
:1009700004EB001463608B7B1C064B7B44EA03444E
:100980000B7B44EA0323CC7A234302F5C07404EBC7
:100990000014A3608B7C1C064B7C44EA03440B7C54
:1009A00044EA0323CC7B234302F5C07404EB001418
:1009B000E36002F5C07303EB00131B6843F001040E
:1009C00002F5C07303EB00131C6010BD10B50246A6
:1009D000002321B1012907D002290FD109E0906835
:1009E0001D4C00EA04030BE090681C4C00EA040371
:1009F00006E090681A4C00EA040301E0002300BFFF
:100A000000BF184C181BA34216D007DC83B16FF04F
:100A10008060184470B1022818D111E0B0F5007F51
:100A200010D0114C204448B1B0F5003F0ED10BE07E
:100A300002230DE000230BE0002309E0002307E080
:100A4000012305E0012303E0012301E0002300BFAF
:100A500000BFD8B210BD000003000004000300086E
:100A600000000310000100080001FFF730B1012869
:100A70000CD0022812D0032820D117E00021104A00
:100A80001160104A1170104A116017E000210F4ADE
:100A900011600F4A11700F4A11600FE000210E4AD9
:100AA00011600E4A11700E4A116007E000210D4AD4
:100AB00011600D4A11700D4A116000BF00BF7047F0
:100AC000300000202C0000204000002034000020D6
:100AD0002D00002044000020380000202E000020BF
:100AE000480000203C0000202F0000204C00002087
:100AF00030B1012808D002280AD0032810D10BE019
:100B00000021084A11600BE00021074A116007E04C
:100B10000021064A116003E00021054A116000BF70
:100B200000BF704740000020440000204800002023
:100B30004C0000200020064981F8F00081F8F10007
:100B400081F8F20081F8F300012081F8F400704789
:100B5000780100207047000010B5034618780A4C51
:100B6000A178227891420BD0884201DA914207DBCA
:100B7000914201DA824203DB824203DA884201DADF
:100B8000014CA07010BD0000500000200246002162
:100B90000CE00848405C08B9084670470548405CCE
:100BA000904201D10846F8E7481CC1B21429F0DB95
:100BB000FF20F2E781000020024600210CE00848F7
:100BC000405C08B9084670470548405C904201D136
:100BD0000846F8E7481CC1B21429F0DBFF20F2E711
:100BE0006D000020F0B50A4600210023002400BF5C
:100BF0003DE0012505FA01F3156805EA03049C426E
:100C000034D105684F000326BE40B5430560157911
:100C10004E00B5400668354305601579012D02D0B8
:100C20001579022D16D185684F000326BE40B543C5
:100C3000856055794E00B5408668354385604568C6
:100C400001268E40B5434560456896798E40B6B220
:100C500035434560C5684F000326BE40B543C560B7
:100C6000D5794E00B540C6683543C560491C10298A
:100C7000BFD3F0BDF0B5002300244D07ED0E02FAFE
:100C800005F3CE1000F1200555F826504E07F70E5B
:100C90000F26BE40B543CF1000F1200646F827507E
:100CA000CE1000F1200555F8265045EA0304CE1079
:100CB00000F1200545F82640F0BD018370470AB1D8
:100CC000018300E04183704710B50146022232489B
:100CD00090F8F400012801D1002010BD2E4890F8B2
:100CE000F100142390FBF3F403FB140000EB40002D
:100CF000294B03EB800000790871184690F8F10049
:100D0000142390FBF3F403FB140000EB4000224B90
:100D100003EB800040794871184690F8F1001423E5
:100D200090FBF3F403FB140000EB40001A4B53F864
:100D30002000086011E0184890F8F100142390FB9F
:100D4000F3F403FB140000EB4000134B03EB8000B3
:100D5000801D835C881D8354521C082AEBDB0E48DF
:100D600090F8F100401C142390FBF3F403FB1400F3
:100D7000094B83F8F100002083F8F300184690F83F
:100D8000F20093F8F130984203D10120024B83F82E
:100D9000F4000120A1E7000078010020014631B1F4
:100DA000012907D0022908D003290CD108E00748FF
:100DB0000068704706480068FBE706480068F8E7E7
:100DC00005480068F5E74FF0FF30F2E740000020EB
:100DD00044000020480000204C00002000BFFEE737
:100DE00001460020C8224A7103E0FF238A1D1354E4
:100DF000401C0628F9DB704710B509480949C1F8BD
:100E0000F8000948C1F8FC000848C1F80001D1F811
:100E10000001804701F0E8F800F01CFF10BD000061
:100E2000C90C000878010020591F0008350B000884
:100E3000034619791A78914203DA0B4800789042F8
:100E40000DDC09480078904203DD074800788842AD
:100E500005DB05480078884203DA914201DA012077
:100E600070470020FCE700005000002000BFFEE7B4
:100E70000EB515A0FFF7FEF922E01648007858B12C
:100E800000201449087005201349087013490870A0
:100E900003201349087014E06846FFF715FF70B18E
:100EA0009DF8050000F0100040B905200A490870BF
:100EB0000A49087003200A49087002E000E000BFF8
:100EC000DBE700BF0EBD00004E4D427573536C65ED
:100ED00065700A00090000200000002001000020C9
:100EE000020000207047000010B5002439A0FFF771
:100EF000C1F90121394881763948007810B1394863
:100F0000007900E01920354908703548007810B1A3
:100F10003448007900E01920304988703048007862
:100F200010B13048007900E019202C4948700020A9
:100F300008762B48007810B12A48007900E02A484A
:100F4000264948602648007810B12648806800E0AD
:100F50006420224988602248007810B12148C06886
:100F600001E04FF482701D49C8601D48007810B13F
:100F70001C48006901E04FF47A701849086118486C
:100F8000007810B11748406901E041F288301349F8
:100F90004861FFF731FF002405E000210F483130A0
:100FA0000155601CC4B2142CF7DB002405E00021BD
:100FB0000A481D300155601CC4B2142CF7DB082010
:100FC0000A4908700D200A4908700520094908706F
:100FD00010BD00004E4D496E69740A00500000209B
:100FE0000B0000209800002019A0FF18000000202E
:100FF000010000200200002010B586B0002475A07A
:10100000FFF738F9E2E00220FFF7C8FE00284AD0D7
:101010000220FFF76DFD7248007E38B3012000F01A
:10102000D5FE704908706E48807E98B16846FFF71B
:10103000D7FE9DF8050040F014008DF805006848C3
:1010400000788DF80400664840680090684601F01A
:10105000C1F804460C2064490870644908700620F1
:10106000634908700220FFF701FDB0E0022000F0A4
:10107000ADFE604908705A48807E98B16846FFF717
:10108000AFFE9DF8050040F004008DF805005448BF
:1010900000788DF80400524840680090684601F0DE
:1010A00099F8044692E04CB100249DF8050000F048
:1010B000040010B101214A48017787E003A8FFF737
:1010C00003FE00287ED09DF810204BA00399FFF767
:1010D000D1F84348807E38B14148007F20B99DF85F
:1010E000110000F0200038B33D48807E50B13C48EC
:1010F000007F38B13A48007E20B19DF8110000F021
:101100002000C8B13648807E38B93548007E20B10D
:101110009DF8110000F0200070B13148807E10B9B8
:101120002F48007E40B12E48807EB0B12C48007F11
:1011300098B12B48007E80B92E480078FFF796FCC6
:101140000021274801770820274908700D202749EA
:10115000087006202649087039E02148807E38B999
:101160001F48007E20B19DF8110000F02000C0B99A
:101170001B48807E50B11A48007F38B11848007E65
:1011800020B19DF8110000F0200050B91448807E75
:10119000C0B11348007FA8B99DF8110000F02000ED
:1011A00080B114480078FFF761FC032000F00EFEC8
:1011B000154908700A200C4908700C49087006206F
:1011C0000B4900E001E0087001E000BF1BE700BF31
:1011D00006B010BD4E4D4C696D70486F6D650A00CC
:1011E0005000002006000020000000200100002028
:1011F000020000200700002049643A256C78204452
:10120000413A25780A000000080000200EB526A00B
:10121000FFF730F844E02A48007880B100202849E0
:101220000870062027490870274908700C202749B4
:101230000870022000F0CAFD2549087031E06846B8
:10124000FFF742FD98B19DF8050000F0100068B965
:1012500006201C4908701C4908700C201B490870A6
:10126000022000F0B3FD1A4908701AE018E00120CE
:10127000FFF794FD98B10120FFF73AFC0120FFF73A
:10128000F5FB032000F0A2FD124908700A200D4969
:1012900008700D49087006200C49087001E000BF75
:1012A000B9E700BF0EBD00004E4D4C696D70486F30
:1012B0006D6550726570536C6565700A00000000C2
:1012C0000900002000000020010000200200002092
:1012D000070000200800002010B588B0002400207E
:1012E000019079A0FEF7C6FFEAE005A8FFF7ECFC45
:1012F00000282CD000207749087001A905A800F02B
:1013000057FB9DF8182074A00599FEF7B3FF9DF8D0
:10131000190000F02000C8B17348007EA8B17348DE
:101320000078FFF7A3FB72480078FFF79FFB0320CC
:1013300000F04CFD6F49087009206F4908706F4933
:10134000087007206E490870BBE0B9E0B8E00020E3
:10135000FFF724FD002860D00020FFF7C9FB634899
:101360000078FFF783FB012000F030FD5F49087033
:101370005D48807E80B35C48007EA0B102A8FFF784
:101380002FFD9DF80D0040F012008DF80D0056481D
:1013900080788DF80C0054484068029002A800F054
:1013A00019FF044613E002A8FFF71AFD9DF80D008F
:1013B00040F002008DF80D004B4880788DF80C004D
:1013C00049484068029002A800F004FF04464148E2
:1013D0000078401C3F4908703E480078082811DD1D
:1013E00042480078FFF742FB022000F0EFFC45493D
:1013F000087006204049087040490870072040499D
:1014000008705EE03848C07E18B101213648417648
:1014100002E001203449C87652E00120FFF7BEFC0B
:1014200058B10120FFF764FB0820334908703349A5
:10143000087007203249087043E03348007878B1DB
:101440000020314908702848807E00B138E00B2028
:10145000294908702949087007202949087030E097
:1014600014B99DF8040050B30024002001901949DC
:1014700008709DF80D0000F00200F8B11B480078DC
:10148000FFF7F4FA1A480078FFF7F0FA012000F0AD
:101490009DFC164908709DF80D0000F0100060B129
:1014A0001148007E40B10B201349087013490870A1
:1014B00007201349087004E002E001E000E000BFEB
:1014C00013E700BF08B010BD4E4D4E6F726D616CDA
:1014D0000A0000000300002049643A256C7820448B
:1014E000413A25780A000000500000200600002044
:1014F000050000200800002000000020010000205E
:1015000002000020070000200A00002010B588B06B
:101510000024002001904BA0FEF7ACFE8EE005A851
:10152000FFF7D2FB68B301A905A800F041FA9DF8C6
:10153000190000F01000D8B19DF8190000F020004B
:10154000A8B145480078FFF791FA44480078FFF7C2
:101550008DFA032000F03AFC414908700920414906
:101560000870414908700B204049087067E065E049
:1015700007203C4908703C4908700B203B49087023
:101580005DE00020FFF70AFCD0B10020FFF7B0FAC1
:101590003748807E98B102A8FFF722FC9DF80D0025
:1015A00040F032008DF80D00314880788DF80C0045
:1015B0002F484068029002A800F00CFE04463DE06F
:1015C0000120FFF7EBFB60B10120FFF791FA082043
:1015D000244908700D20244908700B202349087005
:1015E0002DE02448007858B10020224908700720D7
:1015F0001C4908701C4908700B201C4908701EE02B
:1016000014B99DF80400C0B10024002001901248D4
:101610000078FFF72BFA11480078FFF727FA03202C
:1016200000F0D4FB0E49087009200E4908700E49DD
:1016300008700B200D49087001E000BF6FE700BF84
:1016400008B010BD4E4D5072657061726542757381
:10165000536C6565700A000006000020050000203C
:1016600008000020000000200100002002000020EF
:1016700050000020090000203EB5002400252EA0C7
:10168000FEF7F8FD2F4800780D2804D100202E49E0
:1016900008702E49087005E02D4801781D3001556D
:1016A000601CC4B2142CF7DB2948007828498870E4
:1016B00026480078401C254908706846FFF790FBD3
:1016C0002348807EA0B12248406800909DF8050024
:1016D00040F001008DF805001D4800788DF80400E9
:1016E000684600F077FD18480078401C16490870DD
:1016F00015480078082811DC1448007804280DDC0F
:10170000002000F063FB134908700720124908709D
:101710000C4908700820114908700CE0022000F004
:1017200055FB0F49087006200B49087005490870E1
:1017300008200A4908703EBD4E4D52657365740A13
:101740000000000001000020030000200400002031
:1017500050000020050000200000002002000020B2
:101760000700002027E014480078C01E0A2821D274
:10177000DFE800F01D20050E0B08171A1114FFF703
:10178000B3FB17E0FFF778FF14E0FFF7A5FD11E0CA
:10179000FFF732FC0EE0FFF7B9FE0BE0FFF736FD76
:1017A00008E000F06DF805E000F008F802E0FFF74F
:1017B0005FFB00BF00BFD6E7000000200EB526A0EB
:1017C000FEF758FD45E028480078A0B100202649E2
:1017D000087026480078FFF749F9022000F0F6FA71
:1017E00023490870062023490870234908700A20FD
:1017F000224908702EE06846FFF766FAB8B19DF8F6
:10180000050000F0100088B906201A4908701A492E
:1018100008700A201949087014480078FFF726F963
:10182000022000F0D3FA1249087013E011E00320FF
:10183000FFF7B4FA60B103200E4908700E49087032
:101840000A200E49087009480078FFF70FF901E0F7
:1018500000BFB8E700BF0EBD4E4D547762734C69B0
:101860006D70486F6D650A000900002008000020B7
:1018700007000020000000200100002002000020DE
:101880003EB500241EA0FEF7F5FC36E00320FFF76E
:1018900085FA40B103201E4908701E4908700920CE
:1018A0001D4908702AE06846FFF70EFA98B19DF8C6
:1018B000050000F0100000B11FE018480078FFF7A5
:1018C000D5F80820124908700D2012490870092027
:1018D0001149087012E01248007868B10F4800788A
:1018E000FFF7C4F808200A4908700D20094908705C
:1018F00009200949087001E000BFC7E700BF3EBDED
:101900004E4D547762734E6F726D616C0A00000029
:10191000000000200100002002000020080000203C
:101920000900002070B5002100230F22C4781CB3E9
:10193000174C246804F4E064C4F5E064C4F30721A0
:10194000C1F10404E3B20A4144789C40E1B28478D6
:10195000144021430C07210E0E4C05786155047884
:1019600004F01F050124AC4005786D11AD0005F1B0
:10197000E025C5F8004109E0047804F01F050124C2
:10198000AC40054D0678761145F8264070BD000044
:101990000CED00E000E400E080E100E002490143DA
:1019A000024A1160704700000000FA050CED00E0EB
:1019B000FEB504460F46002044490870607900F0E7
:1019C000010020B9607900F00200002874D0257869
:1019D0002846FFF7F1F806463D4885552046FFF7B3
:1019E000BBF8607900F0010040B1002038491D3992
:1019F000C876002136481D384176FEBD607900F07A
:101A00000200002860D033480078FFF72FF83248F2
:101A10000078FFF72BF820792D491D390978884285
:101A200002D02079A84205D1002000F0CFF9294941
:101A3000087049E0012000F0C9F9274908702046E4
:101A4000FFF7F6F9A8B322481D38807E80B32048FE
:101A50001D38007EB0B16846FFF7C2F99DF8050059
:101A600040F011008DF8050019481D3800788DF8F8
:101A7000040017481D3840680090684600F0AAFB33
:101A8000387021E06846FFF7ABF99DF8050040F09B
:101A900001008DF805000E481D3800788DF804000F
:101AA0000B481D3840680090684600F093FB387082
:101AB0000AE000E000E0A0E725782846FFF766F896
:101AC000064603481430855500BF96E70400002001
:101AD0006D00002005000020060000207047000077
:101AE00029B1064A12680243044B1A6004E0034A13
:101AF00012688243014B1A60704700003038024080
:101B000029B1064A12680243044B1A6004E0034AF2
:101B100012688243014B1A6070470000403802404F
:101B200029B1064A12680243044B1A6004E0034AD2
:101B300012688243014B1A6070470000443802402B
:101B4000F0B5002100220024022500260223324F96
:101B50003F6807F00C0121B1042905D0082937D1CD
:101B600005E02E4F076036E02D4F076033E02A4F27
:101B70003F1F3F68C7F38056274F3F1F3F6807F05E
:101B80003F036EB1264FB7FBF3F7DFF88CC0ACF123
:101B9000040CDCF800C0CCF3881C07FB0CF40CE050
:101BA0001E4FB7FBF3F7DFF870C0ACF1040CDCF8A4
:101BB00000C0CCF3881C07FB0CF4174F3F1F3F6895
:101BC000C7F301477F1C7D00B4FBF5F7076002E017
:101BD000124F076000BF00BF0F4F3F6807F0F001D2
:101BE0000909104F7A5C0768D74047600A4F3F6881
:101BF00007F4E051890A0B4F7A5C4768D740876049
:101C0000054F3F6807F46041490B064F7A5C47680F
:101C1000D740C760F0BD0000083802400024F4003F
:101C200000127A000C00002010B504460749206815
:101C3000884209D009122068B1EB102F04D1044862
:101C4000D0F8FC102046884710BD000019A0FF18EE
:101C50007801002000B58BB001214806FFF750FF46
:101C600001210846FFF73CFF4FF4C05005900220C9
:101C70008DF8180000208DF81A0001208DF8190049
:101C80008DF81B0005A93048FEF7ACFF09220B2197
:101C90002D48FEF7EFFF09220C212B48FEF7EAFF43
:101CA00000208DF8260001208DF827008DF82800EF
:101CB0008DF8290000208DF82A008DF82B008DF872
:101CC00022008DF8230006208DF8240005208DF8D1
:101CD00025000620ADF8200008A91C48FEF7E1FC0D
:101CE00000208DF80E008DF80F0001208DF81000F7
:101CF00041F6FF00ADF804004FF42040ADF80600B7
:101D00000020ADF80800ADF80A00ADF80C00012085
:101D10008DF8110001A8FEF737FC012202210B48C3
:101D2000FEF7B6FC14208DF81C0001208DF81D0074
:101D300000208DF81E0001208DF81F0007A8FFF776
:101D4000F1FD0BB000BD0000000002400064004047
:101D500070B586B0054600242868029004208DF8EE
:101D60000C0000208DF80D0008208DF80E00287959
:101D70008DF80F0069798DF81010022406E0A01E7E
:101D8000A91D095C0DF10F000155641C082CF6DB40
:101D900001A90C48FEF787FD0646002400E0641CFC
:101DA00031460848FEF712FE18B940F6FF7084422B
:101DB000F5DB40F6FF70844202DB002006B070BD08
:101DC0000120FBE70064004070470000014600204E
:101DD00031B101290ED0022917D003292BD11FE0E0
:101DE0000122164B1A700022154B1A60154B1A600F
:101DF000002020E00022144B1A600122134B1A70BD
:101E00000022134B1A60012015E00022114B1A60CA
:101E10000122114B1A700022104B1A6002200AE0B6
:101E200000220F4B1A6001220E4B1A7000220E4B3B
:101E30001A60032000BF00BF704700002C00002084
:101E40003000002040000020340000202D00002041
:101E500044000020380000202E0000204800002010
:101E60003C0000202F0000204C0000200CB500207A
:101E7000019000903448006840F480303249086096
:101E800000BF3148006800F4003000900198401C09
:101E90000190009818B90198B0F5A04FF1D12A48E7
:101EA000006800F4003010B10120009001E0002033
:101EB00000900098012846D123484030006840F047
:101EC00080502149403108602048006840F440407B
:101ED0001E4908601C48083000681B49083108602A
:101EE0000846006840F4004008600846006840F476
:101EF000A05008601648091F0860081F006840F0DD
:101F00008070091F086000BF0F48006800F0007073
:101F10000028F9D040F205700E4908600A480830E0
:101F2000006820F00300084908310860084600688E
:101F300040F00200086000BF03480830006800F06D
:101F40000C000828F8D10CBD003802400070004099
:101F500008544007003C024010B50146194890F86B
:101F6000F300012801D1002010BD164890F8F200BE
:101F7000142290FBF2F302FB130000EB4000114A25
:101F800002EB800091E81C001CC00E4890F8F200A3
:101F9000401C142290FBF2F302FB1300094A82F862
:101FA000F200002082F8F400104690F8F200401C85
:101FB00092F8F120904203D10120024A82F8F30006
:101FC0000120D1E77801002010B5052004490870F0
:101FD000002004490870FFF7C5FB002010BD000079
:101FE00000000020020000201FB501210220FFF7A1
:101FF00087FD40F2E730029040F24730ADF8040030
:102000000020ADF80600ADF80C0001A90D4800F065
:102010009FF8012211460B4800F090F80121094871
:1020200000F06FF81D208DF8000001208DF80100F0
:1020300003208DF8020001208DF803006846FFF7A9
:1020400071FC1FBD00040040042808D14FF0E021BE
:10205000096941F004014FF0E022116107E04FF0FF
:10206000E021096921F004014FF0E022116170477D
:102070007047000010B51548006840F4700013491F
:1020800008601348006840F0010011490860002012
:102090000F49083108600E4800680E4908400C4995
:1020A00008600D48091D0860081F006820F48020A2
:1020B000091F0860002006490C310860FFF7D6FEB2
:1020C0004FF0006001498039086010BD88ED00E0E4
:1020D00000380240FFFFF6FE1030002410B5012149
:1020E000054800F01AF8012801D100F07BF8012121
:1020F000014800F003F810BD00040040CA4302820A
:10210000704721B1028842F00102028004E0028897
:102110004FF6FE731A400280704730B50246002029
:1021200000230024158A05EA0103958905EA0104C4
:1021300013B10CB1012000E0002030BD1AB1838939
:102140000B43838102E083898B43838170470000C6
:1021500000220288184B98420ED0184B98420BD0A0
:10216000B0F1804F08D0164B984205D0154B9842DD
:1021700002D0154B984204D14FF68F731A404B880A
:102180001A43124B984207D0114B984204D04FF695
:10219000FF431A400B891A4302804B68C3620B88C5
:1021A0000385054B984202D0044B984201D18B7AAB
:1021B0000386012383827047000001400004014030
:1021C0000004004000080040000C004000100040E7
:1021D0000014004010B504462046FFF7B9FDC0B218
:1021E00010BD000010B52F48007880B12E4800685F
:1021F000401C2D490860084600680A280ADB0020B8
:10220000086000F06BF800202649087002E000200A
:10221000254908602548007880B125480068401CA1
:1022200023490860084600681A280ADB0020086075
:1022300000F04EF800201D49087002E000201C4903
:1022400008601C48007880B11B480068401C1A498F
:1022500008600846006864280ADB0020086000F077
:1022600031F800201349087002E00020124908608C
:102270001248007888B112480068401C1049086074
:1022800008460068B0F5FA7F0ADB0020086000F01D
:102290002BF800200949087002E000200849086076
:1022A00010BD00002C000020300000202D00002078
:1022B000340000202E000020380000202F000020D5
:1022C0003C000020012001490860704748000020C0
:1022D00001200149086070474400002001200149A5
:1022E00008607047400000200120014908607047E5
:1022F0004C00002010B540F225511D4800F04AF86E
:1023000010B31B4800F000F9C4B21A48008800F46A
:102310000040C8B91748008800F4804060B10A2C1A
:1023200003D000201349088020E01248008840F4C0
:1023300000401049088019E00D2C06D10D48008896
:1023400040F480400B49088010E00A480088C0F340
:102350000D0009490C5407480088401C05490880B5
:1023600008460088C72801DD0020088010BD000055
:102370000010014024000020B000002021B182891B
:1023800042F40052828104E082894DF6FF731A40C4
:102390008281704770B5024600240023002500208A
:1023A00040F66A16B14200D100BFC1F3421501F0F8
:1023B0001F03012606FA03F3012D02D1968933404B
:1023C00006E0022D02D1168A334001E0968A33409E
:1023D0000C12012606FA04F41688344013B10CB12D
:1023E000012000E0002070BDF0B503460024002667
:1023F0000025002040F66A17B94200D100BF1846F8
:10240000C1F3421401F01F06012707FA06F5012C5B
:1024100001D10C3004E0022C01D1103000E0143066
:102420001AB107682F43076002E00768AF430760EF
:10243000F0BD00002DE9FF4705460E460024A146E9
:1024400000BFA046B08900B100BF2C8A24F44054DC
:10245000F08804432C82AC8941F20C608443B0883C
:1024600031890843718908430443AC81AC8A24F460
:102470004074B0890443AC826846FFF761FB204892
:10248000854202D01F48854202D1DDF80C9001E060
:10249000DDF80890A88900F4004040B109EBC900BC
:1024A00000EB091031684900B0FBF1F707E009EBD8
:1024B000C90000EB091031688900B0FBF1F7642016
:1024C000B7FBF0F004012009642101FB1078A88912
:1024D00000F4004040B1322000EBC800B0FBF1F046
:1024E00000F00700044308E0322000EB08106421EC
:1024F000B0FBF1F000F00F0004432C81BDE8FF8732
:10250000001001400014014001468888C0F3080013
:10251000704700BFFEE700BF7047000010B50446DB
:102520006FF00400FFF790FDE11704EB5171C1F368
:10253000C701074A11701046007800EB4001C1EB5B
:10254000C0104FF6FF7101EAC0000249088010BDBB
:102550001C0000201E00002000BF054A128802F067
:102560004002002AF9D0C2B2014B9A8070470000A5
:10257000001001401CB54FF4A060FFF70FFA4FF4B4
:10258000E13000F02DF8A820FFF7C8FF012110204E
:10259000FFF7A6FA0820009001208DF80400002023
:1025A0008DF8060003208DF8050001208DF8070046
:1025B00069460748FEF716FB08210548FEF77DFB34
:1025C00004A0FDF757FEFFF7FFFC00201CBD000034
:1025D000001002406174206D61696E0A0000000005
:1025E00010B588B0044601210846FFF779FA0121A9
:1025F0001020FFF795FA072209212248FEF73AFB3F
:1026000007220A211F48FEF735FB4FF4C0600690F1
:1026100002208DF81C008DF81D0000208DF81E0092
:1026200001208DF81F0006A91648FEF7DBFA029478
:102630000020ADF80C00ADF80E00ADF81000ADF8BC
:1026400014000C20ADF8120002A90F48FFF7F2FEAB
:1026500001210D48FFF792FE012240F225510A4860
:10266000FFF7C2FE25208DF8040003208DF8050039
:102670008DF8060001208DF8070001A8FFF752F938
:1026800008B010BD00000240001001404FF0407043
:10269000E1EE100A7047303132333435363738398D
:1026A000414243444546403058003031323334359E
:1026B00036373839616263646566403078000000FF
:1026C000E02600080000002050000000C4010008BF
:1026D000302700085000002090080000E0010008AA
:1026E00000000000000000000000000000000000EA
:1026F00001020304010203040607080900000000A8
:1027000000000000000000000000000000000000C9
:1027100000000000000000000000000000000000B9
:1027200000000000000000000000000000000000A9
:0400000508000231BC
:00000001FF
