:020000040800F2
:10000000D808002031020008F10F0008D10E0008C6
:10001000610F000839060008A7260008000000004C
:10002000000000000000000000000000511F000858
:10003000550C000800000000611C000805220008A3
:100040004B0200084B0200084B0200084B0200085C
:100050004B0200084B0200084B0200084B0200084C
:100060004B0200084B0200084B0200084B0200083C
:100070004B0200084B0200084B0200084B0200082C
:100080004B0200084B0200084B0200084B0200081C
:100090003D0600084B0200084B0200084B02000816
:1000A0004B0200084B0200084B0200084B020008FC
:1000B0004B020008712200084B0200084B020008A6
:1000C0004B0200084B0200084B0200084B020008DC
:1000D0004B020008892400084B0200084B0200086C
:1000E0004B0200084B0200084B0200084B020008BC
:1000F0004B0200084B0200084B0200084B020008AC
:100100004B0200084B0200084B0200084B0200089B
:100110004B0200084B0200084B0200084B0200088B
:100120004B0200084B0200084B0200084B0200087B
:100130004B0200084B0200084B0200084B0200086B
:100140004B0200084B0200084B0200084B0200085B
:100150004B0200084B0200084B0200084B0200084B
:100160004B0200084B0200084B0200084B0200083B
:100170004B0200084B0200084B0200084B0200082B
:100180004B0200084B02000800F002F800F041F8B2
:100190000AA090E8000C82448344AAF10107DA45E2
:1001A00001D100F036F8AFF2090EBAE80F0013F0F3
:1001B000010F18BFFB1A43F0010318470027000086
:1001C00020270000103A24BF78C878C1FAD8520717
:1001D00024BF30C830C144BF04680C6070470000C1
:1001E0000023002400250026103A28BF78C1FBD840
:1001F000520728BF30C148BF0B607047782900F014
:100200006D80002070471FB502F036FB1FBD10B592
:1002100010BD00F0DFF91146FFF7F5FF02F0BCFA60
:1002200000F0FDF903B4FFF7F2FF03BC02F044FA5B
:100230000948804709480047FEE7FEE7FEE7FEE77A
:10024000FEE7FEE7FEE7FEE7FEE7FEE704480549B6
:10025000054A064B70470000092200088901000882
:10026000D8020020D8080020D8040020D80400209C
:10027000704700000FB4044910B503AA029800F0BB
:100280007BF910BC5DF814FB2000002070B504461B
:1002900085690068C10601D5302600E02026C00728
:1002A00007D070BDD4E9012130469047206A401C38
:1002B00020626D1EF6D570BD70B504468569007864
:1002C000C00707D170BDD4E9012120209047206AE2
:1002D000401C20626D1EF6D570BD000070B504464E
:1002E0000D4621461068AFF300802188090502D52C
:1002F0000F4A7A4402E00E4A7A440E32002104F199
:10030000240305E000F00F060009965D5E54491CC9
:100310000028F7D120780023000704D5702D02D0E3
:1003200009B1022311322046BDE8704000F0CAB87E
:100330008C2500002DE9F05F894604464FF0000A45
:10034000DFF874B1FB44C0F820A02046E16888477C
:10035000002874D0252806D0D4E901219047206ACE
:10036000401C2062F1E700265F462046E16888478E
:100370002028054607DB312D05D2781910F8200C0E
:1003800008B10643F1E7B00701D526F00406C4F82A
:100390001CA00027C4F818A02A2D09D0284602F076
:1003A00084F938B304EB8708303DC8F8185019E0D9
:1003B00059F8041B204604EB87029161E1688847E5
:1003C000012F054618D1E069002820DA26F0200622
:1003D0001DE0D8F8180000EB800005EB4000303835
:1003E000C8F818002046E1688847054602F05DF924
:1003F0000028EED1012F0AD02E2D08D12046E16829
:1004000088477F1C0546022F46F02006C4DBA06902
:10041000002803DA404246F00106A061F00701D04F
:1004200026F010066C2D0BD0682D09D04C2D39D03C
:100430006A2D35D0742D35D07A2D33D016E038E0C2
:10044000E1682F4620468847B842054609D16C2FFF
:1004500026D04FF48060E168064320468847054671
:1004600004E06C2F1AD04FF4807006430DB3A5F151
:100470004100192802D8203546F400664A4629462C
:10048000204626604E46FFF7B9FE80B101280BD00A
:10049000F61D26F0070000F1080956E74020E4E7C2
:1004A0008020D8E70020D6E706F104094DE728466A
:1004B00052E7206ABDE8F09F622500007047704750
:1004C000704770472DE9F0470D469946924604461D
:1004D00000F124080168880604D5E06921F01001C4
:1004E000216000E00120A84201DD471B00E0002759
:1004F000A1697A1902EB0900081AA0612078C006E8
:1005000002D42046FFF7C2FE002608E0D4E901210C
:100510001AF806009047206A401C761C20624E455F
:10052000F4DB2078C0060AD52046FFF7AFFE06E0D0
:10053000D4E9012130209047206A401C2062381EF7
:10054000A7F10107F4DC07E0D4E9012118F8050060
:100550009047206A401C2062281EA5F10105F3DCAB
:100560002046FFF7A9FE2078000602D50220BDE84C
:10057000F0870120FBE70000074B70B50D467B4478
:1005800000F011F80446284600F020F810B14FF0B2
:10059000FF3070BD204670BDFB21000001694A1C80
:1005A00002610878704700B58FB0CDE901310021B4
:1005B000059105497944CDE9031011466846FFF7D6
:1005C000B9FE0FB000BD0000E5FFFFFF007B00F0AB
:1005D00080007047754600F02BF8AE46050069466E
:1005E000534620F00700854618B020B5FFF72EFED1
:1005F000BDE820404FF000064FF000074FF0000824
:100600004FF0000B21F00701AC46ACE8C009ACE8A4
:10061000C009ACE8C009ACE8C0098D46704710B508
:100620000446AFF300802046BDE81040FFF7FABD56
:10063000004870477802002000BFFEE710B588B080
:10064000002403AA00210F4800F035F99DF8180096
:100650008DF805009DF817008DF8040004980090AF
:10066000022407E00DF11700025DA01E0DF1060146
:100670000A54641C082CF5DB684601F097FB08B0AF
:1006800010BD00000064004010B50021837A0122F3
:1006900002FA03F13D4A126842F001023B4B1A6034
:1006A0003A4A1C3212688A43384B1C331A60027B68
:1006B000CAB9364A0C3212688A43344B0C331A607A
:1006C0004288C38842EA0343304A4032847A42F87F
:1006D00034300288838842EA03432C4A4032847AC9
:1006E00002EBC4025360027B012A19D1274A0C3263
:1006F00012680A43254B0C331A604288038842EA89
:100700000343224A4032847A42F83430C2888388D4
:1007100042EA03431D4A4032847A02EBC40253602A
:10072000C27A3AB9194A121D12688A43174B1B1D27
:100730001A6006E0154A121D12680A43134B1B1D6E
:100740001A60028932B9114A143212688A430F4B77
:1007500014331A600289012A06D10C4A1432126835
:100760000A430A4B14331A60427B012A06D1074A16
:100770001C3212680A43054B1C331A60034A126884
:1007800022F00102014B1A6010BD0000006600401B
:100790001AB143690B43436102E043698B434361F0
:1007A000704730B5024600200023146824F002048C
:1007B0001460146844F00104146000E05B1C546889
:1007C00004F001041CB94FF6FF74A342F6D154683B
:1007D00004F001040CB900206CE08C79012C04D1E8
:1007E000146844F08004146003E0146824F080046A
:1007F0001460CC79012C04D1146844F040041460D6
:1008000003E0146824F0400414600C7A012C04D135
:10081000146844F02004146003E0146824F02004F9
:1008200014604C7A012C04D1146844F01004146054
:1008300003E0146824F0100414608C7A012C04D1B5
:10084000146844F00804146003E0146824F00804F9
:100850001460CC7A012C04D1146844F004041460B0
:1008600003E0146824F0040414608C78A407CD78A5
:1008700044EA05640D7944EA05444D7944EA055497
:100880000D886D1E2C43D461146824F0010414609B
:10089000002300E05B1C546804F001041CB14FF617
:1008A000FF74A342F6D1546804F001040CB1002097
:1008B00000E0012030BD10B500F5D87303EB011343
:1008C0001B6803F004031372137A53B900F5D8734D
:1008D00003EB01131B6840F2FF7404EA53531360E7
:1008E00009E000F5D87303EB01131B686FF0604457
:1008F00004EAD303536000F5D87303EB01131B68BC
:1009000003F00203537200F5D87303EB01135B6825
:1009100003F00F03937200F5D87303EB01135B68C8
:100920001B0AD37400F5D87303EB01139B68D372D1
:1009300000F5D87303EB01139B681C0A147300F5D0
:10094000D87303EB01139B681C0C547300F5D87328
:1009500003EB01139B681B0E937300F5D87303EB35
:100960000113DB68D37300F5D87303EB0113DB6865
:100970001C0A147400F5D87303EB0113DB681C0C1C
:10098000547400F5D87303EB0113DB681B0E9374EA
:1009900021B9C36843F02003C36003E0036943F057
:1009A0002003036110BD10B502460020936803F0D8
:1009B0008063B3F1806F00D110E0936803F00063AF
:1009C000B3F1006F01D1012008E0936803F0805378
:1009D000B3F1805F01D1022000E00420042874D02C
:1009E00002F5C07303EB00131B6803F0010402F56A
:1009F000C07303EB00131C600B7A7BB94B7A0C8835
:100A000043EA445302F5C07404EB00142468234302
:100A100002F5C07404EB0014236010E00B7A4C68FC
:100A200043EAC4034C7A234302F5C07404EB001478
:100A30002468234302F5C07404EB001423608B7A0E
:100A400003F00F038B7202F5C07303EB00135B68B6
:100A500023F00F0402F5C07303EB00135C6002F592
:100A6000C07303EB00135B688C7A234302F5C074F8
:100A700004EB001463608B7B1C064B7B44EA03444D
:100A80000B7B44EA0323CC7A234302F5C07404EBC6
:100A90000014A3608B7C1C064B7C44EA03440B7C53
:100AA00044EA0323CC7B234302F5C07404EB001417
:100AB000E36002F5C07303EB00131B6843F001040D
:100AC00002F5C07303EB00131C6010BD10B50246A5
:100AD000002321B1012907D002290FD109E0906834
:100AE0001D4C00EA04030BE090681C4C00EA040370
:100AF00006E090681A4C00EA040301E0002300BFFE
:100B000000BF184C181BA34216D007DC83B16FF04E
:100B10008060184470B1022818D111E0B0F5007F50
:100B200010D0114C204448B1B0F5003F0ED10BE07D
:100B300002230DE000230BE0002309E0002307E07F
:100B4000012305E0012303E0012301E0002300BFAE
:100B500000BFD8B210BD000003000004000300086D
:100B600000000310000100080001FFF730B1012868
:100B70000CD0022812D0032820D117E00021104AFF
:100B80001160104A1170104A116017E000210F4ADD
:100B900011600F4A11700F4A11600FE000210E4AD8
:100BA00011600E4A11700E4A116007E000210D4AD3
:100BB00011600D4A11700D4A116000BF00BF7047EF
:100BC0002C000020280000203C00002030000020E5
:100BD0002900002040000020340000202A000020CE
:100BE00044000020380000202B0000204800002096
:100BF00030B1012808D002280AD0032810D10BE018
:100C00000021084A11600BE00021074A116007E04B
:100C10000021064A116003E00021054A116000BF6F
:100C200000BF70473C00002040000020440000202E
:100C3000480000200020064981F8F00081F8F1000A
:100C400081F8F20081F8F300012081F8F400704788
:100C5000740100207047000010B5034618780A4C54
:100C6000A178227891420BD0884201DA914207DBC9
:100C7000914201DA824203DB824203DA884201DADE
:100C8000014CA07010BD00004C0000200246002165
:100C90000CE00848405C08B9084670470548405CCD
:100CA000904201D10846F8E7481CC1B21429F0DB94
:100CB000FF20F2E77D000020024600210CE00848FA
:100CC000405C08B9084670470548405C904201D135
:100CD0000846F8E7481CC1B21429F0DBFF20F2E710
:100CE00069000020F0B50A4600210023002400BF5F
:100CF0003DE0012505FA01F3156805EA03049C426D
:100D000034D105684F000326BE40B5430560157910
:100D10004E00B5400668354305601579012D02D0B7
:100D20001579022D16D185684F000326BE40B543C4
:100D3000856055794E00B5408668354385604568C5
:100D400001268E40B5434560456896798E40B6B21F
:100D500035434560C5684F000326BE40B543C560B6
:100D6000D5794E00B540C6683543C560491C102989
:100D7000BFD3F0BDF0B5002300244D07ED0E02FAFD
:100D800005F3CE1000F1200555F826504E07F70E5A
:100D90000F26BE40B543CF1000F1200646F827507D
:100DA000CE1000F1200555F8265045EA0304CE1078
:100DB00000F1200545F82640F0BD000010B50146C1
:100DC0000222324890F8F400012801D1002010BD21
:100DD0002E4890F8F100142390FBF3F403FB140069
:100DE00000EB4000294B03EB800080790871184626
:100DF00090F8F100142390FBF3F403FB140000EBD4
:100E00004000224B03EB8000C0794871184690F8EF
:100E1000F100142390FBF3F403FB140000EB4000FB
:100E20001A4B53F82000086011E0184890F8F100C0
:100E3000142390FBF3F403FB140000EB4000134B6E
:100E400003EB8000801D835C881D8354521C082A9C
:100E5000EBDB0E4890F8F100401C142390FBF3F4F8
:100E600003FB1400094B83F8F100002083F8F30022
:100E7000184690F8F20093F8F130984203D101201F
:100E8000024B83F8F4000120A1E700007401002068
:100E9000014631B1012907D0022908D003290CD11C
:100EA00008E007480068704706480068FBE7064806
:100EB0000068F8E705480068F5E74FF0FF30F2E713
:100EC0003C0000204000002044000020480000209A
:100ED00000BFFEE701460020C8224A7103E0FF235D
:100EE0008A1D1354401C0628F9DB704710B50948C9
:100EF0000949C1F8F8000948C1F8FC000848C1F8E0
:100F00000001D1F80001804701F032F900F064FFE0
:100F100010BD0000BD0D000874010020E120000894
:100F2000350C0008034619791A78914203DA0B4808
:100F3000007890420DDC09480078904203DD0748B4
:100F40000078884205DB05480078884203DA914240
:100F500001DA012070470020FCE700004C0000206F
:100F600000BFFEE700B587B019A0FFF783F90220A4
:100F70008DF8060001A91948FFF713FC01F028F9C4
:100F800022E01748007858B1002015490870052064
:100F9000144908701449087003201449087014E0BB
:100FA00004A8FFF70BFF70B19DF8150000F01000CA
:100FB00040B905200B4908700B49087003200B4904
:100FC000087002E000E000BFDBE700BF07B000BD33
:100FD0004E4D427573536C6565700A0000640040A5
:100FE0000900002000000020010000200200002075
:100FF0007047000010B5002439A0FFF73BF901212C
:10100000394881763948007810B13948007900E0D4
:101010001920354908703548007810B134480079F6
:1010200000E01920304988703048007810B130480D
:10103000007900E019202C494870002008762B48E0
:10104000007810B12A48007900E02A482649486013
:101050002648007810B12648806800E064202249C4
:1010600088602248007810B12148C06801E04FF440
:1010700082701D49C8601D48007810B11C48006985
:1010800001E04FF47A70184908611848007810B1EF
:101090001748406901E041F2883013494861FFF781
:1010A00025FF002405E000210F4831300155601C68
:1010B000C4B2142CF7DB002405E000210A481D30DF
:1010C0000155601CC4B2142CF7DB08200A490870D3
:1010D0000D200A49087005200949087010BD00005C
:1010E0004E4D496E69740A004C0000200B00002030
:1010F0009400002019A0FF1800000020010000202B
:101100000200002010B58CB000248FA0FFF7B2F8C9
:1011100015E10220FFF7BCFE00287CD00220FFF77B
:1011200067FD8C48007E002842D0012000F012FFAD
:10113000894908708748807E00282DD006A8FFF7CF
:10114000C9FE9DF81D0040F014008DF81D00814877
:1011500000788DF81C007F484068069006A801F0D2
:1011600003F9044606A8C07A06A9897A06AA527A23
:1011700006AB1B7ACDE90232CDE904109DF81F00C1
:101180009DF81E10CDE900109DF81D309DF81C2023
:1011900072A00699FFF76EF80C207F4908707F490E
:1011A000087006207E4908700220FFF7DFFCC7E0C8
:1011B000022000F0CFFE7B4908706648807E002840
:1011C00030D006A8FFF786FE9DF81D0040F0040011
:1011D0008DF81D005F4800788DF81C005D48406860
:1011E000069006A801F0C0F804460A2001F084FA2F
:1011F00006A8C27A817A407A06AB1B7ACDE9023022
:10120000CDE904129DF81F009DF81E10CDE90010D5
:101210009DF81D3000E006E09DF81C204FA00699C7
:10122000FFF728F88BE04CB100249DF81D0000F07A
:10123000040010B101214748017780E009A8FFF7B9
:10124000BDFD00287AD04348807E38B14148007FF8
:1012500020B99DF8290000F0200038B33D48807E79
:1012600050B13C48007F38B13A48007E20B19DF82B
:10127000290000F02000C8B13648807E38B93548D2
:10128000007E20B19DF8290000F0200070B13148A7
:10129000807E10B92F48007E40B12E48807EB0B1CC
:1012A0002C48007F98B12B48007E80B93D480078DB
:1012B000FFF75CFC002127480177082036490870B9
:1012C0000D203649087006203549087038E021485D
:1012D000807E38B91F48007E20B19DF8290000F0BB
:1012E0002000C0B91B48807E50B11A48007F38B139
:1012F0001848007E20B19DF8290000F0200050B968
:101300001448807EC8B11348007FB0B99DF8290009
:1013100000F0200088B123480078FFF727FC032065
:1013200000F018FE204908700A201B4908701B496C
:10133000087006201A49087002E0FFE700BFE8E6DF
:1013400000BF0CB010BD00004E4D4C696D70486F71
:101350006D650A004C000020060000204E4D4944F7
:101360003A256C78204E4D444154413A253032782C
:1013700020253032782025303278202530327820F0
:1013800025303278202530327820253032782025DB
:101390003032780A00000000000000200100002028
:1013A0000200002007000020080000200EB526A043
:1013B000FEF760FF44E02A48007880B10020284909
:1013C0000870062027490870274908700C20274913
:1013D0000870022000F0BEFD2549087031E0684623
:1013E000FFF7ECFC98B19DF8050000F0100068B91B
:1013F00006201C4908701C4908700C201B49087005
:10140000022000F0A7FD1A4908701AE018E0012038
:10141000FFF73EFD98B10120FFF7EAFB0120FFF73F
:10142000A5FB032000F096FD124908700A200D4923
:1014300008700D49087006200C49087001E000BFD3
:10144000B9E700BF0EBD00004E4D4C696D70486F8E
:101450006D6550726570536C6565700A0000000020
:1014600009000020000000200100002002000020F0
:10147000070000200800002010B588B000240020DC
:10148000019076A0FEF7F6FEE3E005A8FFF796FCD4
:1014900030B300207449087001A905A800F04AFB88
:1014A0009DF8190000F02000C8B17048007EA8B176
:1014B0006F480078FFF75AFB6E480078FFF756FB3D
:1014C000032000F047FD6C49087009206B49087043
:1014D0006B49087007206B490870BBE0B9E0B8E0C1
:1014E0000020FFF7D5FC002860D00020FFF780FB2C
:1014F0005F480078FFF73AFB012000F02BFD5C49C4
:1015000008705A48807E80B35848007EA0B102A877
:10151000FFF7E0FC9DF80D0040F012008DF80D0083
:10152000524880788DF80C0050484068029002A81C
:1015300000F01AFF044613E002A8FFF7CBFC9DF869
:101540000D0040F002008DF80D00484880788DF8BD
:101550000C0046484068029002A800F005FF0446CF
:1015600041480078401C404908703F4800780828EE
:1015700011DD3F480078FFF7F9FA022000F0EAFC9D
:101580004149087006203D4908703D490870072010
:101590003C4908705EE03548C07E18B101213348EF
:1015A000417602E001203149C87652E00120FFF780
:1015B0006FFC58B10120FFF71BFB08202F49087072
:1015C0002F49087007202F49087043E02F48007802
:1015D00078B100202D4908702448807E00B138E0A1
:1015E0000B202649087026490870072025490870F5
:1015F00030E014B99DF8040050B30024002001909D
:10160000194908709DF80D0000F00200F8B1184863
:101610000078FFF7ABFA17480078FFF7A7FA012028
:1016200000F098FC124908709DF80D0000F01000C1
:1016300060B10E48007E40B10B201049087010497F
:10164000087007200F49087004E002E001E000E0A4
:1016500000BF1AE700BF08B010BD00004E4D4E6F2E
:10166000726D616C0A000000030000204C00002035
:1016700006000020050000200800002000000020D7
:101680000100002002000020070000200A000020C6
:1016900010B588B00024002001904BA0FEF7EAFDB1
:1016A0008EE005A8FFF78AFB68B301A905A800F042
:1016B00041FA9DF8190000F01000D8B19DF819000A
:1016C00000F02000A8B145480078FFF74FFA4448E1
:1016D0000078FFF74BFA032000F03CFC414908700A
:1016E000092041490870414908700B2040490870A1
:1016F00067E065E007203C4908703C4908700B2012
:101700003B4908705DE00020FFF7C2FBD0B100202C
:10171000FFF76EFA3748807E98B102A8FFF7DAFB30
:101720009DF80D0040F032008DF80D0031488078B2
:101730008DF80C002F484068029002A800F014FEBB
:1017400004463DE00120FFF7A3FB60B10120FFF755
:101750004FFA0820244908700D20244908700B20F6
:10176000234908702DE02448007858B10020224910
:10177000087007201C4908701C4908700B201C4980
:1017800008701EE014B99DF80400C0B100240020C8
:10179000019012480078FFF7E9F911480078FFF747
:1017A000E5F9032000F0D6FB0E49087009200E4928
:1017B00008700E4908700B200D49087001E000BF49
:1017C0006FE700BF08B010BD4E4D5072657061727A
:1017D00065427573536C6565700A00000600002051
:1017E000050000200800002000000020010000206B
:1017F000020000204C000020090000203EB500241B
:1018000000252EA0FEF736FD2F4800780D2804D1C4
:1018100000202E4908702E49087005E02D480178F7
:101820001D300155601CC4B2142CF7DB2948007828
:101830002849887026480078401C25490870684669
:10184000FFF748FB2348807EA0B122484068009003
:101850009DF8050040F001008DF805001D48007856
:101860008DF80400684600F07FFD18480078401CA1
:101870001649087015480078082811DC14480078CB
:1018800004280DDC002000F065FB134908700720D8
:10189000124908700C4908700820114908700CE0C2
:1018A000022000F057FB0F49087006200B49087012
:1018B0000549087008200A4908703EBD4E4D526522
:1018C0007365740A0000000001000020030000207E
:1018D000040000204C000020050000200000002033
:1018E000020000200700002027E014480078C01EF6
:1018F0000A2821D2DFE800F01D20050E0B08171A78
:101900001114FFF777FB17E0FFF778FF14E0FFF7FC
:10191000B3FD11E0FFF7F6FB0EE0FFF7B9FE0BE0B9
:10192000FFF744FD08E000F06DF805E000F008F86E
:1019300002E0FFF717FB00BF00BFD6E70000002062
:101940000EB526A0FEF796FC45E028480078A0B129
:1019500000202649087026480078FFF707F9022082
:1019600000F0F8FA2349087006202349087023493B
:1019700008700A20224908702EE06846FFF71EFA18
:10198000B8B19DF8050000F0100088B906201A498A
:1019900008701A4908700A2019490870144800781C
:1019A000FFF7E4F8022000F0D5FA1249087013E0BE
:1019B00011E00320FFF76CFA60B103200E490870B4
:1019C0000E4908700A200E49087009480078FFF790
:1019D000CDF801E000BFB8E700BF0EBD4E4D547713
:1019E00062734C696D70486F6D650A0009000020D4
:1019F0000800002007000020000000200100002057
:101A0000020000203EB500241EA0FEF733FC36E0A5
:101A10000320FFF73DFA40B103201E4908701E491C
:101A2000087009201D4908702AE06846FFF7C6F9CA
:101A300098B19DF8050000F0100000B11FE01848B3
:101A40000078FFF793F80820124908700D2012491A
:101A5000087009201149087012E01248007868B136
:101A60000F480078FFF782F808200A4908700D2017
:101A70000949087009200949087001E000BFC7E75B
:101A800000BF3EBD4E4D547762734E6F726D616CF8
:101A90000A000000000000200100002002000020D9
:101AA000080000200900002070B5002100230F224B
:101AB000C4781CB3174C246804F4E064C4F5E064F3
:101AC000C4F30721C1F10404E3B20A4144789C4005
:101AD000E1B28478144021430C07210E0E4C0578A6
:101AE0006155047804F01F050124AC4005786D11A0
:101AF000AD0005F1E025C5F8004109E0047804F0E7
:101B00001F050124AC40054D0678761145F82640A6
:101B100070BD00000CED00E000E400E080E100E0BA
:101B200002490143024A1160704700000000FA05B3
:101B30000CED00E0FEB504460F4600204449087055
:101B4000607900F0010020B9607900F002000028FF
:101B500074D025782846FFF7AFF806463D488555EE
:101B60002046FFF779F8607900F0010040B10020CD
:101B700038491D39C876002136481D384176FEBDEA
:101B8000607900F00200002860D033480078FEF74A
:101B9000EDFF32480078FEF7E9FF20792D491D3925
:101BA0000978884202D02079A84205D1002000F0AF
:101BB000D1F92949087049E0012000F0CBF9274903
:101BC00008702046FFF7AEF9A8B322481D38807E82
:101BD00080B320481D38007EB0B16846FFF77AF91F
:101BE0009DF8050040F011008DF8050019481D38DA
:101BF00000788DF8040017481D384068009068464A
:101C000000F0B2FB387021E06846FFF763F99DF8F9
:101C1000050040F001008DF805000E481D380078E1
:101C20008DF804000B481D3840680090684600F0AD
:101C30009BFB38700AE000E000E0A0E7257828462A
:101C4000FFF724F8064603481430855500BF96E791
:101C5000040000206900002005000020060000208C
:101C60007047000029B1064A12680243044B1A600B
:101C700004E0034A12688243014B1A607047000077
:101C80003038024029B1064A12680243044B1A60F8
:101C900004E0034A12688243014B1A607047000057
:101CA0004038024029B1064A12680243044B1A60C8
:101CB00004E0034A12688243014B1A607047000037
:101CC00044380240F0B500210022002402250026FD
:101CD0000223324F3F6807F00C0121B1042905D0DF
:101CE000082937D105E02E4F076036E02D4F0760F9
:101CF00033E02A4F3F1F3F68C7F38056274F3F1FEF
:101D00003F6807F03F036EB1264FB7FBF3F7DFF8EC
:101D10008CC0ACF1040CDCF800C0CCF3881C07FBD1
:101D20000CF40CE01E4FB7FBF3F7DFF870C0ACF11A
:101D3000040CDCF800C0CCF3881C07FB0CF4174F34
:101D40003F1F3F68C7F301477F1C7D00B4FBF5F7D9
:101D5000076002E0124F076000BF00BF0F4F3F68EF
:101D600007F0F0010909104F7A5C0768D740476017
:101D70000A4F3F6807F4E051890A0B4F7A5C4768C5
:101D8000D7408760054F3F6807F46041490B064F15
:101D90007A5C4768D740C760F0BD00000838024051
:101DA0000024F40000127A000C00002010B5044654
:101DB00007492068884209D009122068B1EB102F2A
:101DC00004D10448D0F8FC102046884710BD00001C
:101DD00019A0FF187401002000B58BB0012148063E
:101DE000FFF750FF01210846FFF73CFF4FF4C050BA
:101DF000059002208DF8180000208DF81A008DF84B
:101E0000190001208DF81B0005A93148FEF76AFF73
:101E100009220B212E48FEF7ADFF09220C212C4888
:101E2000FEF7A8FF00208DF8260001208DF827007E
:101E30008DF828008DF8290000208DF82A008DF8F3
:101E40002B0001208DF8220000208DF823000620B1
:101E50008DF8240005208DF825000620ADF820001F
:101E600008A91C48FEF79DFC00208DF80E008DF897
:101E70000F0001208DF8100041F6FF00ADF80400BE
:101E80004FF42040ADF806000020ADF80800ADF892
:101E90000A00ADF80C0001208DF8110001A8FEF732
:101EA000F3FB012202210B48FEF772FC14208DF88F
:101EB0001C0001208DF81D0000208DF81E0001205F
:101EC0008DF81F0007A8FFF7EFFD0BB000BD000065
:101ED000000002400064004070B586B00546002452
:101EE0002868029004208DF80C0000208DF80D0069
:101EF00008208DF80E0028798DF80F0069798DF88B
:101F00001010022406E0A01EA91D095C0DF10F00AF
:101F10000155641C082CF6DB01A90C48FEF743FDB3
:101F20000646002400E0641C31460848FEF7CEFD5A
:101F300018B940F6FF708442F5DB40F6FF7084422A
:101F400002DB002006B070BD0120FBE7006400400A
:101F5000704700000146002031B101290ED002294E
:101F600017D003292BD11FE00122164B1A70002233
:101F7000154B1A60154B1A60002020E00022144B0C
:101F80001A600122134B1A700022134B1A600120B1
:101F900015E00022114B1A600122114B1A70002229
:101FA000104B1A6002200AE000220F4B1A60012237
:101FB0000E4B1A7000220E4B1A60032000BF00BFA8
:101FC00070470000280000202C0000203C0000206A
:101FD00030000020290000204000002034000020B4
:101FE0002A00002044000020380000202B000020A0
:101FF000480000200CB50020019000903448006893
:1020000040F480303249086000BF3148006800F475
:10201000003000900198401C0190009818B9019878
:10202000B0F5A04FF1D12A48006800F4003010B19B
:102030000120009001E0002000900098012846D186
:1020400023484030006840F080502149403108600A
:102050002048006840F440401E4908601C48083091
:1020600000681B49083108600846006840F40040D9
:1020700008600846006840F4A05008601648091F30
:102080000860081F006840F08070091F086000BFEA
:102090000F48006800F000700028F9D040F2057089
:1020A0000E4908600A480830006820F0030008491B
:1020B000083108600846006840F00200086000BF70
:1020C00003480830006800F00C000828F8D10CBD67
:1020D000003802400070004008544007003C0240B5
:1020E00010B50146194890F8F300012801D10020ED
:1020F00010BD164890F8F200142290FBF2F302FB98
:10210000130000EB4000114A02EB800091E81C0034
:102110001CC00E4890F8F200401C142290FBF2F311
:1021200002FB1300094A82F8F200002082F8F40052
:10213000104690F8F200401C92F8F120904203D132
:102140000120024A82F8F3000120D1E77401002047
:1021500010B5052004490870002004490870FFF7F5
:10216000C3FB002010BD0000000000200200002082
:102170001FB501210220FFF785FD40F2E7300290F4
:1021800040F24730ADF804000020ADF80600ADF88D
:102190000C0001A90D4800F0A5F8012211460B48DA
:1021A00000F096F80121094800F075F81D208DF81F
:1021B000000001208DF8010003208DF802000120AD
:1021C0008DF803006846FFF76FFC1FBD0004004058
:1021D00010B500210220FFF755FD10BD042808D1DD
:1021E0004FF0E021096941F004014FF0E022116154
:1021F00007E04FF0E021096921F004014FF0E022EF
:10220000116170477047000010B51548006840F430
:102210007000134908601348006840F0010011493C
:10222000086000200F49083108600E4800680E4918
:1022300008400C4908600D48091D0860081F006827
:1022400020F48020091F0860002006490C31086036
:10225000FFF7D0FE4FF0006001498039086010BDE3
:1022600088ED00E000380240FFFFF6FE1030002449
:1022700010B50121054800F01AF8012801D100F03D
:102280007BF80121014800F003F810BD0004004074
:10229000CA430282704721B1028842F001020280E3
:1022A00004E002884FF6FE731A400280704730B592
:1022B0000246002000230024158A05EA01039589BF
:1022C00005EA010413B10CB1012000E0002030BD8B
:1022D0001AB183890B43838102E083898B43838115
:1022E0007047000000220288184B98420ED0184B0D
:1022F00098420BD0B0F1804F08D0164B984205D0D1
:10230000154B984202D0154B984204D14FF68F736B
:102310001A404B881A43124B984207D0114B9842EF
:1023200004D04FF6FF431A400B891A4302804B68D2
:10233000C3620B880385054B984202D0044B984238
:1023400001D18B7A0386012383827047000001400C
:10235000000401400004004000080040000C004060
:10236000001000400014004010B504462046FFF75E
:10237000B3FDC0B210BD000010B52F48007880B189
:102380002E480068401C2D490860084600680A284D
:102390000ADB0020086000F06BF800202649087076
:1023A00002E00020254908602548007880B12548D2
:1023B0000068401C23490860084600681A280ADBA8
:1023C0000020086000F04EF800201D49087002E06F
:1023D00000201C4908601C48007880B11B48006838
:1023E000401C1A4908600846006864280ADB00207F
:1023F000086000F031F800201349087002E0002066
:10240000124908601248007888B112480068401CE0
:102410001049086008460068B0F5FA7F0ADB002022
:10242000086000F02BF800200949087002E0002045
:102430000849086010BD0000280000202C00002082
:1024400029000020300000202A0000203400002055
:102450002B0000203800002001200149086070474F
:10246000440000200120014908607047400000201E
:1024700001200149086070473C000020012001490B
:10248000086070474800002010B540F225511D48F3
:1024900000F04AF810B31B4800F000F9C4B21A4823
:1024A000008800F40040C8B91748008800F4804054
:1024B00060B10A2C03D000201349088020E01248A4
:1024C000008840F400401049088019E00D2C06D126
:1024D0000D48008840F480400B49088010E00A480D
:1024E0000088C0F30D0009490C5407480088401CBF
:1024F0000549088008460088C72801DD00200880BB
:1025000010BD00000010014024000020AC0000209D
:1025100021B1828942F40052828104E082894DF621
:10252000FF731A408281704770B502460024002371
:102530000025002040F66A16B14200D100BFC1F369
:10254000421501F01F03012606FA03F3012D02D103
:102550009689334006E0022D02D1168A334001E00D
:10256000968A33400C12012606FA04F41688344089
:1025700013B10CB1012000E0002070BDF0B503469E
:10258000002400260025002040F66A17B94200D139
:1025900000BF1846C1F3421401F01F06012707FAD5
:1025A00006F5012C01D10C3004E0022C01D11030D1
:1025B00000E014301AB107682F43076002E0076893
:1025C000AF430760F0BD00002DE9FF4705460E460A
:1025D0000024A14600BFA046B08900B100BF2C8AEC
:1025E00024F44054F08804432C82AC8941F20C60FE
:1025F0008443B08831890843718908430443AC811E
:10260000AC8A24F44074B0890443AC826846FFF776
:1026100059FB2048854202D01F48854202D1DDF88F
:102620000C9001E0DDF80890A88900F4004040B16A
:1026300009EBC90000EB091031684900B0FBF1F764
:1026400007E009EBC90000EB091031688900B0FB15
:10265000F1F76420B7FBF0F004012009642101FBCD
:102660001078A88900F4004040B1322000EBC80087
:10267000B0FBF1F000F00700044308E0322000EB6B
:1026800008106421B0FBF1F000F00F0004432C812E
:10269000BDE8FF8700100140001401400146888812
:1026A000C0F30800704700BFFEE730380A2801D2A7
:1026B000012070470020704700BF704710B50446E6
:1026C0006FF00400FFF78AFDE11704EB5171C1F3CD
:1026D000C701074A11701046007800EB4001C1EBBA
:1026E000C0104FF6FF7101EAC0000249088010BD1A
:1026F0001C0000201E00002070B504464FF4077037
:1027000094FBF0F0C6B24FF4077094FBF0F100FBBD
:10271000114085B205E04FF4077000F009F8701E13
:10272000C6B2002EF7D115B1284600F001F870BDF1
:102730000146114A12884A434FF0E0235A610022B1
:102740009A611A46126942F001021A6100BF4FF005
:10275000E022106900F001021AB100F48032002A70
:10276000F5D04FF0E022126922F001024FF0E02391
:102770001A6100229A6170471E00002000BF054ABE
:10278000128802F04002002AF9D0C2B2014B9A80AE
:10279000704700000010014010B54FF4A060FFF733
:1027A000BFF94FF4E13000F011F8A820FFF786FFE1
:1027B00003A0FDF75FFDFFF7CBFC002010BD00007C
:1027C0006174206D61696E0A0000000010B588B068
:1027D000044601210846FFF745FA01211020FFF7C2
:1027E00061FA072209212248FEF7C4FA07220A21CA
:1027F0001F48FEF7BFFA4FF4C060069002208DF824
:102800001C008DF81D0000208DF81E0001208DF8A1
:102810001F0006A91648FEF765FA02940020ADF8DD
:102820000C00ADF80E00ADF81000ADF814000C204F
:10283000ADF8120002A90F48FFF7C6FE01210D48AE
:10284000FFF766FE012240F225510A48FFF796FE87
:1028500025208DF8040003208DF805008DF8060072
:1028600001208DF8070001A8FFF71EF908B010BD80
:1028700000000240001001404FF04070E1EE100AED
:10288000704730313233343536373839414243447A
:1028900045464030580030313233343536373839D8
:1028A00061626364656640307800040000080000DF
:1028B000000000000002000100001000DC280008F9
:1028C000000000204C000000C40100082829000876
:1028D0004C0000208C080000E0010008000000000F
:1028E00000000000000000000000000001020304DE
:1028F00001020304060708090000000000000000B0
:1029000000000000000000000000000000000000C7
:1029100000000000000000000000000000000000B7
:082920000000000000000000AF
:0400000508000231BC
:00000001FF
